:100073007FEF7E02DFFEDEFC22AF82C2A6C2A58F27
:1000830080D2A7120073C2A7020073AF82D2A6C2A6
:10009300A58F80D2A7120073C2A7020073AF82BFDD
:1000A300010AE510144480F58202007CBF020CAF04
:1000B30010743F2F4480F58202007C22758238122F
:1000C300007C75820C12007C75820612007C75829E
:1000D3000102007C8511101200A085128202008E9D
:1000E3008513101200A07F00EF2514FCE43515FDE5
:1000F300AE168C828D838EF01203A4FE600C8E826A
:10010300C00712008ED0070F80DE22AE82AF837C41
:10011300017D007B008B017A00C3E99517EA6480B7
:100123008518F063F08095F0501E8E2C8F2D8C82F5
:100133008D83C007C006C00312033AAC82AD83D0DF
:1001430003D006D0070B80CD8C828D8322851910B6
:100153001200A0AF1CEF603F8F057E00ED24FFF57A
:1001630017EE34FFF51890000AC00712010EAD8296
:10017300AE838D2C8E2D851A82851B8312031175F8
:100183002C0A752D00120357AD8274302DF582129F
:10019300008ED0071F80BE22851D101200A0E51F10
:1001A30020E70C75822B12008EAE1EAF1F800F75D9
:1001B300822D12008EC3E4951EFEE4951FFFAD2031
:1001C300ED60518D037C00EB24FFF517EC34FFF554
:1001D3001890000AC007C006C00512010EAB82AC1E
:1001E30083D005D006D0078B2C8C2D8E828F83C0B5
:1001F30007C006C005120311752C0A752D001203E2
:1002030057AB8274302BF58212008ED005D006D006
:10021300071D80AC228521101200A0AF24EF60558A
:100223008F057E00ED24FFF517EE34FFF5189000DF
:1002330010C00712010EAD82AE838D2C8E2D852248
:1002430082852383120311E5828583F0D007540F3F
:10025300FDBD0A0050108D0674302EF582C00712C2
:10026300008ED007800C74372DF582C00712008EE4
:10027300D0071F80A8228525101200A0AF28EF60A9
:100283003A8F057E00ED24FFF517EE34FFF5189045
:100293000002C00712010EAD82AE838D2C8E2D8518
:1002A3002682852783120311E5828583F054012476
:0C02B30030F58212008ED0071F80C3229D
:0400000002001132B7
:03000B000202D618
:09006A007529E8752A0302000E55
:03000E000202BF2C
:1002BF001202FE7514C4751503751680751300753B
:1002CF0082001200E380FEC0E0C0D0758A67758C93
:1002DF00FC152974FFB52902152AE529452A600264
:0F02EF0080087529E8752A03B280D0D0D0E0329C
:1003C400383943353220426C696E6B2044656D6F59
:0103D4000028
:1002FE00758901758A67758CFCD28CD2A9D2AF75BF
:10030E002BE8227A10E4FBFCE58225E0F582E583FA
:10031E0033F583EB33FBEC33FCEB952CF5F0EC95DE
:0C032E002D4006FCABF0438201DADD221A
:06004000E478FFF6D8FD94
:10001E007900E94400601B7A009003D5780175A041
:10002E0000E493F2A308B8000205A0D9F4DAF27541
:02003E00A0FF21
:10033A00E582852CF0A4C582C0F0852DF0A4D0F00A
:10034A0025F0C583852CF0A42583F58322E52C4569
:10035A002D60467A01E52C25E0F52CE52D33401277
:10036A00F52DE582952CE583952D40030A80E6C399
:10037A00E52D13F52DE52C13F52CC3E582952CF507
:10038A00F0E583952D4005F58385F082C3E52D13AD
:0A039A00F52DE52C13F52CDAE12215
:100046007800E84400600A790175A000E4F309D855
:10005600FC7800E84400600C7900900001E4F0A30D
:04006600D8FCD9FAEF
:0D00110075812D1203C0E582600302000E10
:1003A40020F71430F6148883A88220F507E6A88382
:1003B40075830022E280F7E49322E0227582002212
:00000001FF
