:100097007FEF7E02DFFEDEFC22AF82C2B6C2B58FE3
:1000A700A0D2B4120097C2B4020097AF82D2B6C2F0
:1000B700B58FA0D2B4120097C2B4020097AF82BF27
:1000C700010AE521144480F5820200A0BF020CAFAB
:1000D70021743F2F4480F5820200A02275823812D6
:1000E70000A075820C1200A07582061200A075820E
:1000F700010200A08522211200C48523820200B2DA
:100107008524211200C47F00EF2525FCE43526FD58
:10011700AE278C828D838EF01204C2FE600C8E8215
:10012700C0071200B2D0070F80DE22AE82AF837CF9
:10013700017D007B008B017A00C3E99528EA648082
:100147008529F063F08095F0501E8E148F158C82F0
:100157008D83C007C006C003120458AC82AD83D09C
:1001670003D006D0070B80CD8C828D8322852A2170
:100177001200C4AF2DEF603F8F057E00ED24FFF521
:1001870028EE34FFF52990000AC007120132AD822C
:10019700AE838D148E15852B82852C8312042F75C3
:1001A700140A751500120475AD8274302DF582128C
:1001B70000B2D0071F80BE22852E211200C4E53071
:1001C70020E70C75822B1200B2AE2FAF30800F756F
:1001D700822D1200B2C3E4952FFEE49530FFAD31B6
:1001E700ED60518D037C00EB24FFF528EC34FFF51F
:1001F7002990000AC007C006C005120132AB82ACC5
:1002070083D005D006D0078B148C158E828F83C0C0
:1002170007C006C00512042F75140A7515001204CD
:1002270075AB8274302BF5821200B2D005D006D0A0
:10023700071D80AC228532211200C4AF35EF60550F
:100247008F057E00ED24FFF528EE34FFF529900099
:1002570010C007120132AD82AE838D148E1585331F
:100267008285348312042FE5828583F0D007540FEB
:10027700FDBD0A0050108D0674302EF582C007129E
:1002870000B2D007800C74372DF582C0071200B278
:10029700D0071F80A8228536211200C4AF39EF602E
:1002A7003A8F057E00ED24FFF528EE34FFF52990FF
:1002B7000002C007120132AD82AE838D148E158500
:1002C700378285388312042FE5828583F054012411
:0C02D70030F5821200B2D0071F80C32255
:0400000002002332A5
:03000B0002036C81
:0100130032BA
:03001B000203DEFF
:0C007C007510007511237512E875130350
:0300940002001E49
:03001E00020314C6
:1002E3000510749C25105003751000C3E51195107B
:1002F3004003D2B722C2B722151274FFB5120215FA
:1003030013E51245136001227512E8751303B280D9
:1003130022D287C286C290C2B77514E375150290C4
:10032300FFA412034B7514FB75150290FC671203AF
:10033300BD1200E37525E275260475278075240137
:0803430075820112010780FE22
:1004E2003830353220426C696E6B2044656D6F0086
:0C008800753A67753BFC753E67753FFCE0
:10034B0085823A85833B85143C85153D5389F04363
:10035B008901853A8A853B8CD2A9D2AFC28DD28CCA
:10036B0022C020C0E0C0F0C082C083C007C006C05E
:10037B0005C004C003C002C001C000C0D075D008C6
:10038B00853A8A853B8C853C82853D8375D00012EE
:10039B00002175D008D0D0D000D001D002D003D02E
:1003AB0004D005D006D007D083D082D0F0D0E0D0D7
:1003BB002032AE82AF838E3E8F3F85144085154130
:1003CB0053890F4389108E8B8F8DD2ABD2AFC28FD7
:1003DB00D28E22C020C0E0C0F0C082C083C007C054
:1003EB0006C005C004C003C002C001C000C0D07568
:1003FB00D018853E8B853F8D85408285418375D096
:10040B000012002175D018D0D0D000D001D002D06E
:10041B0003D004D005D006D007D083D082D0F0D043
:10042B00E0D020327A10E4FBFCE58225E0F582E592
:10043B008333F583EB33FBEC33FCEB9514F5F0ECEA
:0D044B0095154006FCABF0438201DADD227E
:06005200E478FFF6D8FD82
:100030007900E94400601B7A009004F2780175A011
:1000400000E493F2A308B8000205A0D9F4DAF2752F
:02005000A0FF0F
:10045800E5828514F0A4C582C0F08515F0A4D0F01B
:1004680025F0C5838514F0A42583F58322E514457A
:100478001560467A01E51425E0F514E515334012B8
:10048800F515E5829514E583951540030A80E6C3C2
:10049800E51513F515E51413F514C3E5829514F560
:1004A800F0E58395154005F58385F082C3E51513BE
:0A04B800F515E51413F514DAE1223E
:100058007800E84400600A790175A000E4F309D843
:10006800FC7800E84400600C7900900001E4F0A3FB
:04007800D8FCD9FADD
:0F002100E4737581411204DEE582600302001E64
:1004C20020F71430F6148883A88220F507E6A88363
:1004D20075830022E280F7E49322E02275820022F3
:00000001FF
